:020000041000EA
:1000000000B5324B212058609868022188439860DF
:10001000D860186158612E4B002199600221596106
:100020000121F02299502B49196001219960352056
:1000300000F044F80222904214D00621196600F024
:1000400034F8196E01211966002018661A6600F04E
:100050002CF8196E196E196E052000F02FF8012189
:100060000842F9D1002199601B49196000215960AB
:100070001A491B48016001219960EB211966A021F2
:10008000196600F012F800219960164914480160C1
:100090000121996001BC002800D000471248134993
:1000A000086003C880F30888084703B5996A0420EC
:1000B0000142FBD001200142F8D103BD02B5186610
:1000C0001866FFF7F2FF186E186E02BD00000240BE
:1000D000000000180000070000035F00212200005C
:1000E000F4000018222000A00001001008ED00E03C
:1000F00000000000000000000000000074B24E7A12
:1001000000200420F7010010C3010010C5010010F9
:10011000C1010010C1010010C1010010C101001097
:10012000C1010010C1010010C1010010C701001081
:10013000C1010010C1010010C9010010CB01001065
:10014000CD010010CD010010CD010010CD01001037
:10015000CD010010CD010010CD010010CD01001027
:10016000CD010010CD010010CD010010CD01001017
:10017000CD010010CD010010CD010010CD01001007
:10018000CD010010CD010010CD010010CD010010F7
:10019000CD010010CD010010CD010010CD010010E7
:1001A000CD010010CD010010CD010010CD010010D7
:1001B000CD010010CD010010CD010010CD010010C7
:1001C00000BE00BE00BE00BE00BE00BE00F04BF888
:1001D000103800BEF2EB8871285600104C56001003
:1001E0003402001090A31AE700202149086006C8D5
:1001F00081F3088810471F48006800282FD10DA4FC
:100200000ECC002902D000F012F8F9E71A491B4A77
:10021000002000E001C19142FCD1194988471949E9
:1002200088471949884700BEFDE701C901C29A42C3
:10023000FBD370474C560010C00000201C04002067
:10024000A85900100000042000000420A859001044
:1002500000100420001004200000000070470B482C
:1002600002F064FA0047EFF30580C0B27047000067
:1002700008ED00E0000000D020040020DC0F00208A
:10028000F11E001011040010E11F0010575600006D
:1002900006005250ABB36053B454001006005250E5
:1002A000861C0302C4540010060052505422A29D22
:1002B000D054001005005250DE65F468A8590010B3
:1002C000F8B5C0460448054B10B5834203D0044B33
:1002D000002B00D0984710BD1C0400201C040020F7
:1002E0000000000006480749091A8B10C90FC918F9
:1002F00010B5491003D0044B002B00D0984710BD17
:100300001C0400201C0400200000000010B5074C55
:100310002378002B09D1FFF7D5FF054B002B02D026
:10032000044800E000BF0123237010BD2007002017
:100330000000000048520010054B10B5002B03D000
:100340000449054800E000BFFFF7CCFF10BDC046E0
:100350000000000024070020485200100E4A70B52B
:100360009369DB0616D4002510210C4C0C4E207826
:10037000392804D92570936919420BD1002093695B
:100380001942FCD1136833540130C0B22070936914
:100390001942EDD070BDC04600400340D90F002087
:1003A0000C0F0020F0B517498C79002C1CD0164D8D
:1003B000002245196F427D410D272023BC46134E74
:1003C00006316D00002A10D1AA5FA24214D08269C2
:1003D0001342FCD104600A7801310D3A5442624163
:1003E0000C78D2B2002CEDD1F0BD82691342F1D06D
:1003F00082691342F9D1EDE782691342FCD162466A
:100400000260E4E7940F00200080FCBF840F00200E
:10041000F0B5DE46574645464E46E0B585B004F099
:1004200081FC04F027FA04F095FCCD4BCD4C9A46A4
:10043000CD4BCE4E9B46CE4BCE4D9846CE4F03F085
:10044000E1F903F04FF9002824D12378002BF6D0EE
:100450002B883560622B0ED8C84A9B00D3589F4624
:100460005246AB1D13602B89E9881B040B431A3BD2
:10047000022B00D84AE200232B80402229000020D2
:1004800004F0E2F80023237003F0BCF903F02AF92A
:100490000028DAD003F02EF92378002BCFD0D7E74D
:1004A00001232B806B883A2BE5D8AA88002A01D13A
:1004B00000F0F8FB012A01D100F0D7FC00232B80CB
:1004C000AF4B1868831CD8D3002233681A705A7057
:1004D000D3E701236A882B803A2ACCD8AB88002B3B
:1004E00001D100F0D2FB012BE8D1A648A91D04F0F0
:1004F0009BFEA34B1860E5E74246AB1D1360A88A3C
:100500006B8A000418432B8BE98AAA8B1B040B43CC
:10051000698B120403430A43134300D00DE22B8975
:10052000EA881B040121134301D000F0A7FC04203A
:1005300000F04CFD0121052000F048FD01210620BE
:1005400000F044FD43461B68587919799A790002F6
:10055000014312040A43D9790906114389460A0066
:100560001978002A00D1CFE25A78120211439A7802
:1005700012040A43D97809061143894601D100F0D3
:10058000DBFB0129A0D15A7A197A12020A43997A1F
:100590007C4809040A43D97A0906114304F050FD46
:1005A000ADE001232B806B883A2B00D963E7A98843
:1005B000080A00D156E3012800D07FE70020AA1DD9
:1005C0000090C9B2704804F0E5FC6D4B186079E703
:1005D000AB889946002B00D1D7E2012B00D04AE727
:1005E0003A220021694802F0C3F9694B69491B7836
:1005F00066481A00039302F0C1F9039B644A6B80BA
:10060000002313704B462B8037E701232B806B8828
:100610003A2B00D92FE7AB88002B00D13DE3012B0B
:1006200000D028E75C48FFF7BDFE26E701232B80BA
:100630006B883A2B00D91EE7A988080A00D11BE372
:10064000012801D100F006FC00232B804C4B1868D8
:100650000230012800D910E736E7AB1D3B60A88BBC
:100660002B8B6A8BE98A00041B0410430B43034362
:1006700000D097E12B89EA881B040321134300D0A3
:100680008BE3062000F0A2FC0321072000F09EFC73
:1006900000220121062000F0B1FC002201210720E8
:1006A00000F0ACFC3B68587919799A790002014353
:1006B00012040A43D9790906114389460A001978B8
:1006C000002A00D1CEE15A78120211439A7812041E
:1006D0000A43D97809061143894600D16FE30129FD
:1006E00000D0F1E65A7A197A12020A43997A26481A
:1006F00009040A43D97A0906114304F0B9FB4A46B2
:1007000033681A7000225A70B7E65246AB1D136068
:10071000D0232A89E9881B065B6812040A43D34068
:10072000012213406B821B0C2A802900AB823F32CE
:10073000002003F089FFA5E652460121AB1D13609E
:100740002B89EA881B0413439940AB8A6A8A1B04ED
:10075000134300D1D3E1D0231B06596101238BE65B
:10076000D80E0020DB0F0020880F0020D40E0020C0
:10077000F80E0020940F0020C80E002048520010F0
:10078000EC0E002000000440F80300209A0F002027
:10079000DA0F0020480F0020008003405246AB1DB6
:1007A00013602889EB880004184300F053FC53467B
:1007B0001B6859791A79987909021143DA7900048A
:1007C000014312060A43022A00D12BE2062A00D175
:1007D00008E2012A00D136E2597A1A7A987A090297
:1007E0001143DA7A0004014312060A4300D1BDE145
:1007F000012A00D113E3022A00D101E30122336868
:1008000029001A70002200205A70403203F01CFFA9
:1008100038E602236B80E74BEB8033E65A46AB1D8C
:100820001360A88A2B8B6A8AE98A00041B04104390
:100830000B43034300D0A2E02B89EA881B0402216A
:10084000134300D0A1E2112000F0C0FB02211020D0
:1008500000F0BCFB5B461B68587919799A79000255
:10086000014312040A43D9790906114389460A0053
:100870001978002A00D1C5E05A78120211439A78FB
:1008800012040A43D97809061143039100D112E2F8
:10089000012900D018E65A7A197A12020A43997A85
:1008A000C54809040A43D97A0906114300F092FCAD
:1008B000C022C14912020B6B80201340BF4A400185
:1008C00013606023CA6A53406E221340BC4A02433D
:1008D0001360CB6A10210B4013601520B94901F059
:1008E0001DFD0121152001F0FFFC50238020B2499D
:1008F00040018B634A6B183B1A40B34B03431A60A9
:10090000039A33681A7000225A70B6E5AF4A1B0387
:1009100011684B40E021C9010B40AD490B60042137
:10092000AC4B1960FC3113680B42FCD052680123B8
:100930006A8200222B80AA829FE5012100F046FBFB
:10094000434619684B7C087C8A7C1B020343C87CA5
:100950001204134300061843012100F037FB4346FD
:1009600019684B7D087D8A7D1B020343C87D1204F4
:10097000134300060121184300F028FBE2E50221A1
:1009800000F024FB5B461A68537C117C1B02194360
:10099000937CD07C1B04194300060843022100F01D
:1009A00015FB57E7032100F011FB3A68537C117CDB
:1009B0001B021943937CD07C1B0419430006084397
:1009C000032100F003FB3A68537D117D1B0219439C
:1009D000937DD07D1B0419430006084300220121AA
:1009E00000F00CFB3A68537C117C1B021943937C8A
:1009F000D07C1B041943000608430022012100F0AB
:100A0000FDFA4FE65A78120211439A7812040A430B
:100A1000D97809061143039100D1DEE1012900D103
:100A20004EE249463268117051705A7B187B1202AF
:100A30000243987B1F2100040243D87B0006104329
:100A400000F0C4FA5B461A681F21537C107C1B021D
:100A50000343907C00040343D07C0006184300F05D
:100A6000B5FA0AE55A78120211439A7812040A4339
:100A7000D97809061143039100D171E1012900D110
:100A800014E249463268117051705A7C187C120287
:100A90000243987C002100040243D87C00061043E6
:100AA000002200F0ABFA3A680021537D107D1B0252
:100AB0000343907D00040343D07D002200061843C9
:100AC00000F09CFA3A681F21537C107C1B02034300
:100AD000907C00040343D07C0006184300F076FAB3
:100AE0003A68537D107D1B020343907D1F21000453
:100AF0000343D07D0006184300F068FABDE4D0231C
:100B00001B0699610123B7E45A78120211439A78BF
:100B100012040A43D97809061143039100D129E14F
:100B2000012900D1B7E149463268117051705A7BF2
:100B3000187B12020243987B1F2100040243D87BDA
:100B40000006104300F042FA43461A681F21537C06
:100B5000107C1B020343907C00040343D07C0006FE
:100B6000184300F033FA43461A68BAE75A781878FF
:100B7000120202439878002100040243D87800064C
:100B80001043002200F03AFA38E63A2200211248D7
:100B900001F0EEFE114B12491B780F481A00039327
:100BA00001F0ECFE4A46039B6B800C4B1A7001234C
:100BB0002B8062E4FF11000000800340309003406E
:100BC0002C8003405D0300103480034000C00440CB
:100BD00000D0044000E004409A0F0020D90F00200C
:100BE0000C0F00205A781978120211439A781204D7
:100BF0000A43D978090611430A001A3A8946022A9B
:100C000000D9E9E51F21484600F0E0F900224846F6
:100C1000110000F0F3F90021484600F007FA5346AE
:100C20001B68D9E559781A78090211439A78120499
:100C30001143DA7812060A43012191400A00D021BB
:100C400009064A62C8E5587819780002084399787D
:100C500009040843D978090601438A40D0210906CE
:100C60008A62B9E50090AA1D9E48C9B204F092F9C3
:100C70009D4B1860FFF726FC0090AA1D9948C9B249
:100C800004F020F9984B1860E2E49848A91D04F09C
:100C9000CBFA954B1860FFF715FC9548FFF782FBE0
:100CA000FFF7EBFB00219148AA1D04F095FA8E4B4B
:100CB0001860FFF707FC5A7A197A12020A43997AE8
:100CC00009040A43D97A8A4B090699461143180048
:100CD00000F080FA4B461A6BC02380211B021A4099
:100CE000844B49010B431A604B46DA6A6023534038
:100CF0006E221A40804B14200B431A604A46D16A78
:100D000010220A401A607D4901F008FB01211420DD
:100D100001F0EAFA4A4650239363536B382280214C
:100D20001A40774B49010B431A60012233681A704D
:100D3000039A5A70FFF7A1FB5A7A197A12020A43F2
:100D4000997A6A4809040A43D97A0906114304F0DA
:100D500077F9012233681A704A465A70FFF78DFB03
:100D6000604804F013F8012233681A70039A5A702D
:100D70003B688AE65D4804F0DFF9012233681A70A7
:100D8000039A5A7043461B68D1E6042000F01EF90E
:100D90000221052000F01AF95CE5042000F016F9A4
:100DA0000321052000F012F900220121042000F0A7
:100DB00025F900220121052000F020F972E45A7A79
:100DC000197A12020A43997A464809040A43D97AE1
:100DD0000906114304F04CF8BBE7454B994618004F
:100DE00000F068FA0021142001F07EFA4B4601223F
:100DF0000399996333681A7059705B461B6814E64F
:100E00005A781878120202439878002100040243AD
:100E1000D87800061043012200F0F0F8EEE45A788A
:100E20001878120202439878012100040243D8780E
:100E300000061043002200F0E1F853461B68597A7F
:100E40001A7A090211439A7A12041143DA7A1206C5
:100E50000A43D0E40020AA1D0090C9B2294804F03A
:100E600031F8214B1860FFF7F3FB00212648AA1D3B
:100E700004F0B2F91C4B1860FFF724FB0E2000F0C1
:100E8000A5F801210F2000F0A1F80121102000F0A9
:100E90009DF8FFF757FB1C4804F04EF93368039A9E
:100EA0001A704A465A7043461B6840E6154803F0DC
:100EB0006DFF3368039A1A704A465A703B68E4E53E
:100EC000124800F0F7F90021152001F00DFA4A460A
:100ED0000E4B9A633368039A1A704A465A705B46FF
:100EE0001B68A2E5F0030020EC0E002000C00340C8
:100EF00000400340304003402C4003405D0300109D
:100F000034400340F8030020000004400080034008
:100F10007047C0467047C0467047C0467047C046DD
:100F2000402210B50020034903F062FB0122024B6E
:100F30001A7010BD940F0020DB0F0020004870478E
:100F400028540010004870470854001070B500285D
:100F500026D0032831D81A4B8000C658300004F040
:100F600009F9C0B2011C1F2815D8C9B2002821D028
:100F70000023144DAA1CF05C0133DCB21080023255
:100F8000A142F8D8C0230131C9B249009B001943DE
:100F90002800298070BD1F21C9B20028E8D109E0CE
:100FA000084D074B02221968A81C01F0E7FCC1217B
:100FB0008900EDE70449034DEAE70020EAE7C0466F
:100FC000080300205407002002030000094A8300A0
:100FD00094464022634410B51C68C0006240C0249F
:100FE00014408022520113431C60034B9C46604412
:100FF000416010BD04C00140004001400A4B800028
:101000009C4604236044002901D00C230821002AB7
:1010100000D10B00026853400C221A4080235B0170
:10102000184302607047C04604C00140084B80006E
:101030009C466044002905D080239B01184340232F
:1010400003607047C0239B01184340230360F8E707
:1010500004C001400123D0228340120693629361B1
:10106000094A83009446402263441968C0004A40FC
:10107000C02111408022520113431960034B9C464A
:10108000052360444360704704C0014000400140B4
:1010900070B5EFF3108C72B60D4D2B68002BFCD0A1
:1010A000BFF35F8F0724CB08C618C05C01230C4038
:1010B000A3401C000440034207D103433370BFF335
:1010C0005F8F2C608CF3108870BD100000F08AFFD9
:1010D0002C0100D0F8B54746CE46884680B5EFF3E0
:1010E000108C72B6214D2C68002CFCD0BFF35F8FA2
:1010F0009A422CD8D4080727055D06190124174009
:10110000BC402C421FD007210127894609E0D408A2
:10111000055D06194C4639001440A1400C002942D7
:1011200011D001329342F2D201204042BFF35F8FCF
:1011300000220E4B1A608CF3108800280FDBC0BC15
:10114000B946B046F8BD2C4310003470EEE7BFF34B
:101150005F8F00232B608CF31088012040424346B0
:10116000002BECD0089800F03DFFC0462C0100D0C9
:10117000024B18688007C00F7047C04600C0064089
:101180000021044B044ABFF35F8F02C39342FAD19C
:101190007047C046000100D0800100D0044A10789A
:1011A000431CDBB2172B00D9102313707047C046C5
:1011B0001803002000B5054B83B0010000931822EE
:1011C0001F230348FFF786FF03B000BD3C54001007
:1011D000540A0020F8B5040006200D0001F07EF846
:1011E000002844D02A4B2B49E21853425A4180230D
:1011F000DB039C469205284B62441A60274B1A6019
:1012000010008B689843FBD1214B8021E3185A4290
:101210005341234A5B0049009952062001F05EF8D1
:101220002900C00001F0B4FAC30921D140270121EF
:10123000260080256162A36200232C36AD01354370
:101240002B60062001F04AF83900800001F0A0FA76
:101250006023E26A53406E221A4080235B013343CD
:101260001A60104B236310232B600D3BA364F8BD61
:101270000D4A934203D900230C4F0D49D8E77F2232
:101280001040013040089F0119003F180300CFE7CC
:101290000080FCBF00C0004000E0004000F00040C3
:1012A000840F002001030000FEFF0000C0FF3F008C
:1012B000FFFF0000064B9C46604443425841802398
:1012C000DB039C468005034B604418607047C046B2
:1012D0000080FCBF00E0004083680B4810B58446E6
:1012E00061446244090112019A18591854684B6804
:1012F00001209C4201D802D00020C0B210BD12686B
:101300000B689A42F9D8F7E7FFFFFF0F0A4B1968FD
:10131000EFF3108072B60A68002AFCD0BFF35F8F2B
:101320001B68BFF35F8F00221A6080F3108840BFF4
:10133000002000217047C046F40E0020F8B5574643
:101340004E464546DE46E0B599460CAB1C780DABE3
:101350001B78060090469A460768002C11D1BC7B8A
:10136000002C42D065003B682D19033D59194B787C
:10137000BB73002B00D1FB7300238B704B700B7081
:1013800004E065003B682D19033D5919B2682A4BEA
:1013900094464246E3181B0163441A604A465A6069
:1013A0000A9A9A600B9ADA6000238B704B700B706C
:1013B0007B7B9B46002B2BD022005946B8687B686C
:1013C00098473A68002816D05B4658465B005B4455
:1013D0005519033BA870D118D35C002B00D06B705B
:1013E0005B460C707B73A34513D0F0BCBB46B24682
:1013F000A946A046F8BD5B465B005B44033BD3189F
:101400009C705119525D002A00D05A705B460B70D7
:101410007C7342464B46307D00F0D6FA051E06D05E
:101420005346002B03D12100306800F023FD0E9BB2
:10143000002BDAD01D70D8E7FFFFFF0FF0B5DE46B6
:101440004E46574645460023E0B58DB00A936B4B98
:101450008200D3580B90994600239B464B46079336
:1014600000F062FA079C06000F006268EFF3108537
:1014700072B61368002BFCD022000794BFF35F8F75
:101480002468637B9946002B67D092685C4B90463A
:101490004B441B01984443461A685B6810001900CE
:1014A000801BB94100295FDD0B9800F08DFA002305
:1014B0000026984600279A46079C6368BFF35F8F13
:1014C0005A461A6085F310885346002B08D100282D
:1014D000C6D10DB0F0BCBB46B246A946A046F0BD91
:1014E0000A9B414618024B461843D0470890099181
:1014F0006268EFF3108572B61368002BFCD0079476
:10150000BFF35F8F0899099A002A48DB114303D083
:10151000079B1B69002B5DD1079B1B68D97B0029AA
:1015200007D04A00521819688C4649466244033A6B
:1015300051704A46DA734B46079A013BD168CA5C40
:101540000132CA545B46079A13615368BFF35F8F39
:101550005A461A6085F3108882E7002300269846D1
:1015600000279A460020A7E7002901D100289BD137
:101570000021200000F000FC43461E685F689B6865
:10158000079A9A464346DB689846D3684B44013B2A
:101590001B780A931B020343136100208CE7236925
:1015A000002BB9D033003C005B1A94411A00230091
:1015B000A74219D89F421BD059460491012103919B
:1015C0004946029141460191514607980091FFF723
:1015D000B5FEB7E700F0A8F9089A099B06000F00CE
:1015E00092197B419942E5D901225242D317E3E790
:1015F0009642E1D901225242D317DDE7DC0E0020EA
:10160000FFFFFF0FF8B557464E464546DE46E0B5AC
:10161000404D81468A466A68EFF3108872B61368B7
:10162000002BFCD0BFF35F8F2E68B47B002C39D029
:10163000670033683F19033FDB195A78B273002AF9
:1016400000D1F273A968344A8C464946A2181201A7
:101650006244116051465160304991600021D1606F
:10166000997059701970737B9B46002B35D02200FE
:101670001900B068736898473268002820D05B462C
:1016800058465B005B44D719033BB870D118D35C54
:10169000002B00D07B705B460C7073735C451DD0D3
:1016A000002626E06B68BFF35F8F1C6088F310880C
:1016B00001204042F0BCBB46B246A946A046F8BD58
:1016C0005B465B005B44033BD3189C70D119D25D31
:1016D000002A00D05A705B460B7074734A4653461A
:1016E000287D00F071F9061EDAD02100286800F08C
:1016F000C1FBEB681B19013B19786B68BFF35F8F67
:1017000000221A6088F310880020002ED2D108022F
:101710002043CFE71C030020FFFFFF0F0D13001035
:1017200010B5124C6368002B04D00A21104800F059
:10173000D9F910BD23000F4A1021206800F03AFAB1
:10174000032000F0E5F8032000F0AEF903200A4979
:1017500000F0F4F8FFF722FD084B9C460323604499
:101760002375074B80006060DC60DEE71C0300200F
:10177000F40E0020D91200103D1400104000003477
:10178000DC0E0020F8B5CE46474680B506000C00BA
:10179000FFF738FF00280CDC2D4B0020596A8C42E3
:1017A00003D89B6A0130B34245D3C0BCB946B046AA
:1017B000F8BD20BF274D6A68EFF3108772B6136833
:1017C000002BFCD0BFF35F8F2B68C1B29C465B7BC4
:1017D0008B4235D0FF2303405A009146624612687F
:1017E000994490464A464244033A9278002A1DD0D2
:1017F000EA68000A90464344013B1B78C0B283422A
:1018000021D06B68BFF35F8F00221A6087F31088C6
:101810000F4A0020536A9C42C7D8926A0130B242F4
:10182000C3D2E01A421E9041C0B2BEE72B69984273
:10183000E7D12A61E5E7601A431E9841C0B2B4E7D8
:10184000FF230340D4E7604600F014FBD9E7C0460D
:10185000004005401C030020F0B5D6464F464646E2
:10186000C0B5EFF305833F22134018001038EFF3A3
:10187000108C72B6204D2A68002AFCD0BFF35F8F0F
:101880000122110081401D4C884661631C491700EC
:101890000E788A463100C1400F400A4209D1BFF399
:1018A0005F8F2F608CF31088E0BCBA46B146A84623
:1018B000F0BD14498200646A51588C420FD3124B18
:1018C000D25843469E4353461E70BFF35F8F00239A
:1018D0002B608CF31088002AE6D09047E4E70B4A8F
:1018E0009B00904643441A681A60BFF35F8F002341
:1018F0002B608CF31088D7E7280100D0004005400A
:10190000D80F0020FC0E0020440A0020D03F0540E4
:1019100010B50100024A0348FFF7BAFB10BDC046EC
:1019200058540010D60F0020034B596A0A00986AD9
:10193000596A8A42FAD170470040054070B50400E8
:101940000D00EFF3108672B61A4A1368002BFCD014
:10195000BFF35F8F002D1BD0200000F0D7FC16498D
:1019600081420AD0200000F0D9FC0121200000F0C3
:10197000BBFC0123A340114A1360114BA400E550A6
:10198000BFF35F8F00220B4B1A6086F3108870BD87
:101990000B4BA200D5500122A2400A4920000B782F
:1019A00093430B70044900F0E3FC0021200000F099
:1019B0009BFCE5E7280100D059180010386005406D
:1019C000440A0020D80F0020F0B54F46D6464646C0
:1019D000C0B507002F4C616A0D00A66A616AA94272
:1019E000FAD18B4208D805D00120E0BCBA46B146F6
:1019F000A846F0BDB242F7D9EFF3108A72B6264876
:101A000001680029FCD0BFF35F8F0125BD40234949
:101A1000204C8846097889462943C9B28C464146FC
:101A200060460870391D1E48890065630A51B90077
:101A30000B50216A0020294219D0616A0800A66A69
:101A4000616A8142FAD18B4219D801D1B24216D8CB
:101A5000CC451DD00F4B1F201D625D630123074045
:101A6000BB40104A1E38136043464A461A70BFF303
:101A70005F8F0022084B1A608AF31088B5E70020B8
:101A8000BFF35F8F0022044B1A608AF31088ACE723
:101A90000120ECE700400540280100D0D80F0020CD
:101AA000FC0E002080E200E0EFF3108C72B60A49D1
:101AB0000B68002BFCD0BFF35F8F01238340074AE4
:101AC0000748136202789A430270BFF35F8F0023C6
:101AD0000B608CF310887047280100D0004005404F
:101AE000D80F0020024B9C4661448900016070477A
:101AF0004000003410B50400FFF750FB0100200047
:101B0000FFF7F0FFFF232371BFF35F8F10BDC046C7
:101B100010B50400FFF742FB01002000FFF7E2FFD1
:101B2000FF23A380BFF35F8F10BDC04610B5040034
:101B30000120FFF73FFB044B9C466044800020607F
:101B4000BFF35F8F10BDC0464000003470B5050084
:101B500014001600002915D00C00002A12D080684D
:101B60006B689847296800280ED073009B196200A3
:101B7000033B1219CB18033A9C7088188A5C002A20
:101B800015D10670200070BD63001B197200033B65
:101B90009219CB18033A9E7088188A5C002A02D1E9
:101BA00004703400EEE75A7004703400EAE75A70AB
:101BB0000670E7E730B583600023CCB2437301338E
:101BC000047342608373C4730D000068012C06D94E
:101BD000421C0133DBB2137003329C42F9D1FF2166
:101BE00029404B005918002340180338437030BD7A
:101BF000F8B5CE46474606000C0080B5002907D050
:101C00004D0003686D18033D5A195778002F04D111
:101C10002000C0BCB946B046F8BD7900C9190339E7
:101C20008846434459788946002159705170736839
:101C30003A002100806898473368002814D0424653
:101C40009A18947059195B5D002B00D053700F7077
:101C5000270049463000FFF7CBFF39000200300073
:101C6000FFF774FF0400D3E7424641465D19AF70A9
:101C70009A185B5C002B00D06B701470E9E7C046CB
:101C8000F0B557464546DE464E46E0B50D006B00C2
:101C900001685B19DF1E0400C85D83B00192CA1998
:101CA00000284CD043001B18033BCB185E78B44689
:101CB000002E16D1019E002E3ED0E67B002E04D0D1
:101CC00073009B19CB18033B5D70E57300282FD17F
:101CD0000023537003B0F0BCBB46B246A946A046F1
:101CE000F0BD72006244033A89184A789046002297
:101CF0004A7091465A70010032002000FFF726FF1B
:101D000043468246002B07D05B0021684344033BD7
:101D1000CB185A78002A16D1424651462000FFF7C8
:101D200015FF2168019BCA19002BC6D10028CFD00E
:101D300043001B18033BCB1800219970C8E7019B97
:101D4000002BBAD1C4E7500080180338091848782E
:101D5000834648464870587041462000FFF7F6FE1B
:101D6000594680462000FFF743FF4146020020000D
:101D7000FFF7ECFE8046CFE7F0B557464546DE4616
:101D80004E46E0B583B00191457B04006B000068CE
:101D90005B19DF1EC15DC21900294ED04B005B18D4
:101DA000033BC3185E78B446002E18D1019E002E66
:101DB00040D0E67B002E04D073009B19C318033B70
:101DC0005D70E573002931D10023280053706173E1
:101DD00003B0F0BCBB46B246A946A046F0BD7200B7
:101DE0006244033A8018427890460022427091463D
:101DF0005A7020003200FFF7A9FE43468246002BAE
:101E000007D05B0021684344033BCB185A78002A73
:101E100017D1424651462000FFF798FE019B010072
:101E20002068C219002BC4D10029CDD04B005B180B
:101E3000033BC31800209870C6E7019B002BB8D164
:101E4000C2E750008018033809184878834648468E
:101E50004870587041462000FFF778FE594680468A
:101E60002000FFF7C5FE414602002000FFF76EFE8E
:101E70008046CEE770B5040000292CD0437B8B420E
:101E80002ED0056848004018033828188278002AA8
:101E900021D053009B18033BEA5CEE188A4202D122
:101EA0001BE0002A08D053009B18033BEB185A781C
:101EB0008A42F6D142785A7000230122837043701F
:101EC0002000FFF7DDFE617B02002000FFF73EFEF1
:101ED0006073012000E0002070BD43783370EBE7B1
:101EE00001221900FFF7CCFE60730120F4E7C04621
:101EF0002C4B2D4A70B51A602C4A2D4B2D491A6077
:101F000014008B689C43FBD12B4D2C4EB54208D25C
:101F1000013E761BB60808CD984723000134B34232
:101F2000F9D100F07DF8264A214B1A60214A9368C6
:101F3000DB43DB01DD09002BF9D14022214B224C90
:101F4000224E9A675A671A67DA66B44208D2236843
:101F50002000002B20D00834FFF7DAFDB442F6D37E
:101F60001B4E1C4CC022A168300000F007FDA6608B
:101F7000FFF706F900F030FBFFF7D2FB164C174EC7
:101F8000B44208D2013E361BB60808CC98472B0055
:101F900001359E42F9D170BD0834FFF7ABFDB44264
:101FA000D5D3DDE700E00040BFCDFBFEFE7F3C0067
:101FB00000F0004000C00040080400201804002089
:101FC000FFFFFF0100F00140000400200804002092
:101FD0000000002000ED00E0180400201C04002098
:101FE00000BEFDE70FB400B5084883B000F0FCFD6B
:101FF000049B002B07D005A91800019100F076FB87
:10200000034800F0F1FD00BEFDE7C0467C5400101F
:102010008C54001010B50148FFF7E4FF90540010F5
:1020200030B50C2083B000F03DFBFFF7A1F800288D
:102030000ED0944B944A1A605A609A60DA601A6122
:102040005A619A61DA611A62904A5A6203B030BDED
:102050008F4CA06700F02EFB01228E4B1A60636C40
:10206000012BFCD103228C4B1A60894A936B012B04
:10207000FCD102240121894A89480533009400F0EB
:10208000BDFA0523874A01218748009400F0B6FA7B
:10209000864B5A68FF2A02D8802252005A6080225A
:1020A000784C7D4B21691201804D1A60002905D0C2
:1020B000606900F06DFB01300138FDD1E0217B4B00
:1020C00002201A681140802252012A4311601968C7
:1020D000484003210140116004219A681142FCD05C
:1020E0008022802192012A4309011160802252003E
:1020F0005A606F4B23616F4B5968FF2900D85A60B3
:102100000321644A6B4B116002399A681142FCD07A
:10211000E0201A681040802252011A4310601868AB
:102120004840032101400220116062498A68104240
:10213000FCD0802292011343802212011A60802277
:102140005D4B52004A6063615C4B5968FF2900D8BF
:102150005A6080225A4BE1691201584D1A600029D9
:1021600005D0606900F014FB01300138FDD1E02298
:1021700052490B681A4080235B012B431A6080236D
:1021800080229B012B4312011A6080223E4B520099
:102190004A60E3614B4B5968FF2900D85A6080229E
:1021A000494B216A1201474D1A60002905D0606928
:1021B00000F0EEFA01300138FDD1E02241490B6810
:1021C0001A4080235B012B431A60802380229B01ED
:1021D0002B4312011A60802380225B004B602A4B44
:1021E000D2022362394B5968914200D25A60802250
:1021F000374B616A1201354D1A60002905D06069BC
:1022000000F0C6FA01300138FDD1E0222F490B68F9
:102210001A4080235B012B431A60802380229B019C
:102220002B4312011A608023DB024B60174B636261
:10223000284B5A68FF2A02D8802252005A60802216
:10224000254BA1691201234D1A60002905D0606950
:1022500000F09EFA01300138FDD1E0221D490B68E3
:102260001A4080235B012B431A60802380229B014C
:102270002B4312011A6080235B004B600E4BA3615D
:10228000E4E6C046580A0020006CDC021BB70000E0
:10229000008000403CB0004030B00040002F685942
:1022A0000080024000389C1C00C00240308000408A
:1022B000001BB7003C800040405973075480004029
:1022C00054B000406080004060B000406C8000402E
:1022D0006CB000404880004048B00040014B800096
:1022E000C0587047580A002001238340002904D0B9
:1022F000034A1360034A13607047034A1360FBE705
:1023000080E200E000E100E080E100E0024B1030FC
:102310009B688000C058704700ED00E070B50D006C
:10232000EFF3108672B60F4A1368002BFCD0BFF390
:102330005F8F0D4B10309B6884001B590B4A9342F2
:1023400003D09D4201D0FFF765FE074B9B681D51EE
:10235000BFF35F8FBFF35F8F0022024B1A6086F3DB
:10236000108870BD240100D000ED00E0CD01001008
:10237000F0B5DE4657464E464546E0B50C0083B004
:10238000EFF3108A72B65A4A1368002BFCD0BFF3E1
:102390005F8F1022914681444A46564B96009B68B7
:1023A0009D59554B98469D4205D0A54216D0534F96
:1023B000EB1B2F2B14D94F4B9B689D51BFF35F8FA5
:1023C000BFF35F8F00224A4B1A608AF3108803B074
:1023D000F0BCBB46B246A946A046F0BD1D00EAE7E8
:1023E000012383409B465A46454B1B681A40009286
:1023F0005A46444B1A60BFF35F8FFDF734FF0190DC
:10240000002803D0814501D0FFF704FE01232A00F4
:102410009A4313003C49DB1B5B415943090D936808
:102420009C4208D15AE043001B189B00FB18986897
:10243000A04211D01A00062010560028F3DA009BA3
:10244000002B05D05A46314B1A602D4B1A60B2E76B
:102450005A462C4B1A60AEE706201856002821DB9E
:102460004200111889007C188846A1689960E179BA
:10247000D97106216156997100291FDBA488F91AC8
:102480006405241544440919E0240905490D240272
:102490002143998012181E4B9200BF181A781870A9
:1024A000BA71CCE7019800280BD1FF309071194820
:1024B0009080174A107811709871C0E7BD21090209
:1024C000E7E7154A1549D21A083A5002400D014370
:1024D0009980134952080A43DA80B0E70620105663
:1024E00013000028BCDA019A002AEAD14546E0E749
:1024F000240100D000ED00E0CD01001044030020D5
:1025000000E100E080E100E0AAAA000080E200E033
:10251000D70F002000BDFFFF7E03002000F0FFFF6B
:1025200000F8FFFFF8B5012504000543FDF79BFE09
:10253000EFF3108C72B6214A1368002BFCD0BFF366
:102540005F8F1F4E2100B7681E4A1F4B891A4941F1
:102550004B431B0D59B28300F858A8421CD00623E8
:10256000D3568B421CD01223D3568B4222D01E232B
:10257000D3568B4220D02A23D35603208B4210D02F
:10258000124B1A781970A271BFF35F8F00220B4BA8
:102590001A608CF31088F8BDB2680D48D050EFE790
:1025A000002043001B189B00D218FF239371094B96
:1025B0009380E5E70120F4E70220F2E7240100D050
:1025C00000ED00E044030020AAAA0000D70F00207D
:1025D000CD01001000BDFFFF054B064A1360064AFF
:1025E000136053609360D3601361536193617047CC
:1025F0008080808000E400E004E400E0F0B5C6469E
:10260000040000B50C2090461F000E0000F0C0F83A
:102610004101091A8D01691AC9000918890140464A
:1026200000F0B6F8069B3F041A0323681743002BFB
:1026300022DB184B184DE21853425A4180235B01AC
:102640009C461203154B62441A60154B1A60110028
:10265000AB689943FBD1C022231D92011A43212369
:102660002660A06013602368002BFCDA0823E76073
:10267000136080BCB846F0BD3F2322681340B342CC
:10268000D7D1A3681B051B0D8342D2D1E368002F6D
:10269000CFD1EEE70040FDBF00C0004000E00040A9
:1026A00000F000408023024A9B000343D36270473E
:1026B00000800540AA23064A1B0113602F23054909
:1026C000D360054B19605368002BFCDA7047C04695
:1026D0000040024000B0FA000060024010B500283F
:1026E00000D110BD00F030FAFBE7C04610B5094A32
:1026F0000300146884B0002C08D001220091064821
:10270000524203A9A047012004B010BD00F06CFAAA
:102710000020F9E7CC0E0020DD260010014804213E
:10272000014B1847900300204D270010142310B5CB
:102730000100188804331B88984710BD162310B574
:102740000100188802331B88984710BDF8B547462A
:10275000CE4680B50F1E19D01423994604330400C9
:102760000025012698464B461888434621681B8859
:10277000984701C4431E9841013540420640AF428C
:10278000F1D13000C0BCB946B046F8BD0126F8E72B
:10279000114A936F9B0813D210665166002905D029
:1027A000FFE7FFE7FFE7516F106F704704B50028A0
:1027B00001D00020C04302F01FFD002104BDC0462F
:1027C000F0B5146E556E576F166FFFF7E5FF146680
:1027D000556657671667F0BD000000D0132370B52B
:1027E0001D78012D15D010DD1C48FFF7A7FF1C4CEC
:1027F00001008022200000F0C1F8022D06D0194807
:10280000FFF794FF184B186070BD154C174BA3646D
:10281000F5E7164B124C23606360A360E36023610D
:102820006361A361E36123626362A362E362236382
:102830006363A363E36323646364A364E364236562
:102840006365A365E36523666366A366E366236742
:102850006367A367E367A364D1E7C04653440000FE
:10286000200500204C330000F00E002071280010DD
:1028700007B5604601880A0A0230DF2AFAD1C9B2D8
:10288000820804D3028840880004104300E00068F6
:10289000014A5050039007BD200500205143434397
:1028A000C9188C46110C83B24B4310B4040C61431D
:1028B00092B280B2504362431C041B0C001910BC3E
:1028C00059411304120CC018514161447047000073
:1028D000132310B512481C78FFF730FF0100012CBC
:1028E0000AD003DD80220F4800F048F80E48FFF7B9
:1028F0001DFF0E4B186010BD0A4C5422200000F042
:102900003DF80B4B6365A365E36523666366A366C9
:10291000E36623676367A367E3672362E361E5E731
:1029200053460000200600204C330000F00E00202B
:102930003529001007B5604601880A0A0230DF2AEF
:10294000FAD1C9B2820804D3028840880004104337
:1029500000E00068014A5050039007BD20060020A7
:1029600001480421014B1847A00300204D27001007
:10297000014B1B6818470000A0030020014B5B6857
:1029800018470000A0030020030010B50800110044
:102990001B68984710BDC046F0B546464F46D64620
:1029A000C0B5437C80460E001700002B46D0002A9D
:1029B0003FDD4B1E9946244B0125002400209A46FA
:1029C0000DE04B461B5D0D3B5A425341325DDBB27D
:1029D0000A2A0BD02B00013401359F421ADD002C4E
:1029E000EFD14346325D1B7C0A2AF3D1002BF1D193
:1029F000A04204DA4346211A1B6830189847434620
:102A000050461B6802219847013428002B000135ED
:102A10009F42E4DC874204DD4346391A1B683018C4
:102A20009847F619013E33780D3B5A4253414246CE
:102A30001374E0BCBA46B146A846F0BD0368110065
:102A400030009847F5E7C04600550010F0B55746EE
:102A50004E464546DE461C00D023E0B51B061F68E7
:102A6000344B83B006000D00180001A991469A4628
:102A700002F0CAFB8046002808D1019B7FB29F422A
:102A800004D0504602F0D8FB012398466B1C03D1BA
:102A9000300002F06FFB0500002C27D1264F274B9A
:102AA0001C68002C18D04B46002B21D1244B994692
:102AB00002E0E468002C0FD02368002BF9D04B46CD
:102AC0001B68002B01D0A342F3D120002A00310063
:102AD000B847E468002CEFD14346002B25D103B062
:102AE000F0BCBB46B246A946A046F0BD154FD6E79E
:102AF000134B99460A239B4602E0E468002CEBD076
:102B00002368002BF9D04B461B68002B01D0A34251
:102B1000F3D12A0031002000B8475A466B46200006
:102B20001A7101A90122B847E7E7504602F05CFBA1
:102B3000D5E7C0460004002099290010C00A0020F3
:102B4000C40A002089290010F0B5CE46474680B55A
:102B500083B06B46DE1CD02330701B061C681F4BF5
:102B6000804601A91800994602F04EFB071E20D0AE
:102B70001B4B1C68002C28D01A4D02E0E468002C86
:102B80000FD02368002BF9D02B68002B01D0A34273
:102B9000F4D1200001223100FFF7FEFEE468002C92
:102BA000EFD1002F11D1404603B0C0BCB946B046AA
:102BB000F0BD019B64B29C420BD0484602F03CFB46
:102BC000074B01271C68002CD6D1484602F00CFBAD
:102BD000E9E7034B1C68002CCED1E4E70004002099
:102BE000C00A0020C40A002070B5040002F0C2FA36
:102BF00000230100050001222000FFF727FF084BFA
:102C00001C68002C06D06368002B05D09847E46848
:102C1000002CF8D1280070BDE468002CF3D1F9E74E
:102C2000C00A00200D4A1368002B13D0834202D142
:102C300009E0984208D01A00DB68002BF9D100297E
:102C400000D0D06070471A000029FBD1DB68D36048
:102C5000C160F7E70029F5D01060F3E7C00A002053
:102C6000F0B50D1E15DD0E4B0D271A680D4B4519DD
:102C7000D31859424B410C495B005E5E2021047819
:102C8000A64207D093691942FCD101301460A842D2
:102C9000F5D1F0BD93691942FCD11760F2E7C04647
:102CA000900F00200080FCBF840F002030B504008E
:102CB0000D1E12DD00201021094B013C1A6893699A
:102CC000194208D1013093691942FCD11368235489
:102CD0008542F4D130BD0028FCD103204042F9E701
:102CE000900F002070B51C000A4B15001860FEF70D
:102CF00071FA002D03DB02212800FEF767F9002C92
:102D000003DB02212000FEF761F901210248FFF7F1
:102D100089FF70BD900F0020B0030020F0B598230C
:102D200057464546DE464E466C4AE0B5D7588025A4
:102D30003C006D02883B9A4683B02C402F420FD056
:102D400001222321664B00205A54DA70654901F0B4
:102D50006FFA8022644B92021A65644B2C009A46EB
:102D6000FB0617D480235B011F4245D18023DB0182
:102D70001F4200D088E080231B021F4200D091E058
:102D8000BC4200D0A5E003B0F0BCBB46B246A946A9
:102D9000A046F0BD514B9B6D9846002B27D0524B5F
:102DA00000249B460123994643460126B8461F004E
:102DB00004E001347600E4B2202C17D03742F8D07A
:102DC0005B469E654B466508A3436D00ED18444B7A
:102DD0006D019C466544280000F092FB00286CD1F0
:102DE0000134B743E4B27600002FE5D14746802393
:102DF0005B0154461F42B9D01C430023374A0021CF
:102E00001360384A3A489360D3603A4A9360D3607B
:102E1000394A9360D360394A9360D360384A9360EB
:102E2000D360384A9360D360374A9360D360374A9F
:102E30009360D360364A9360D360364A9360D36020
:102E4000354A9360D360354A9360D360344A9360C7
:102E5000D360344A9360D360334A9360D360F022E6
:102E60009200FFF785FD314B314A00211A600020A6
:102E7000012201F0B3F980221B4B12031A65802353
:102E8000DB011F4200D176E70122042100201C4310
:102E900001F014F91022144B1A6580231B021F4203
:102EA00000D16DE70122052100201C4301F006F945
:102EB00080220D4B12011A6562E74B46AA8AA97857
:102EC00000200093002301F0DBF9280000F054FA01
:102ED00086E7210017487940FFF784F80000115079
:102EE000C80A0020000010500030115010000100EE
:102EF000080B00200800105010001050180010504F
:102F00002000105028001050300010503800105091
:102F10004000105048001050500010505800105001
:102F2000600010506800105070001050D00E00204B
:102F3000800110500455001010B501210520FFF745
:102F4000D3F910BD10B500220021024800F03CFA70
:102F500010BDC046E80A00208022024B5201DA640C
:102F60007047C046002011508022024B5202DA64A2
:102F70007047C04600201150F0B5C64600B50600A7
:102F800000F0D4F90C23354D0520AB673449FFF729
:102F9000C5F940239846334C402200212000FFF71A
:102FA000E7FC43460127A383212100232E4A6770B3
:102FB000A260136063545F3161844146A187023986
:102FC00063542A4A2A496360E260A1620B60E262AC
:102FD000284A63629360D360274A20009360D360DD
:102FE000264A00219360D360254A40309360D36025
:102FF000244A9360D360244A9360D360234A936049
:10300000D360234A9360D360224A9360D360224AFC
:103010009360D360214A9360D360214A9360D36068
:10302000204A9360D360204A9360D3601F4A936024
:10303000D360F0229200FFF79BFC1D4B1D4A30002D
:103040001A6080239B052F64EB6490231A4AEA5090
:10305000FFF78AFF80BCB846F0BDC04600001150A3
:103060001D2D0010C80A00208400105000011050CF
:103070008000105000001050080010501000105038
:103080001800105020001050280010503000105030
:1030900038001050400010504800105050001050A0
:1030A0005800105060001050680010507000105010
:1030B000D00E00208001105010D001000B785B066C
:1030C00002D14B78052B00D070478A78014B1A60EB
:1030D000FAE7C04600001150F0B5CE464746072338
:1030E00080B548798E780A790340C8787F218007B7
:1030F00031401B02F40913434F00820F944691465E
:103100002A4D3A195201AA18967001266640567047
:10311000604600269383D6709077CA00012C29D090
:1031200023488446880162448446AC4460468260F9
:103130001660002929D01F4AC900904641444160C9
:103140003F223F3393434A46022A00D15B001A498B
:103150003F190A687F01D3180B60184BED195340D3
:10316000EA604A469006184380231B0618436B68A2
:10317000186010E012488446880162448446AC44DA
:1031800060468262166000290AD1002364012D196D
:103190006B600C4BEB600120C0BCB946B046F0BD83
:1031A000064AC900904641444162C9E7C80A002066
:1031B0008400105004001050D00E00200000105069
:1031C000800010500001105000231C4A10B593607D
:1031D000D3601B4A00219360D3601A4A1A48936057
:1031E000D3601A4A9360D360194A9360D360194A36
:1031F0009360D360184A9360D360184A9360D36099
:10320000174A9360D360174A9360D360164A93605D
:10321000D360164A9360D360154A9360D360154A11
:103220009360D360144A9360D360F0229200FFF75A
:103230009FFB124B124A1A6010BDC046000010508E
:103240000800105010001050080B002018001050FB
:10325000200010502800105030001050380010503E
:1032600040001050480010505000105058001050AE
:10327000600010506800105070001050D00E0020F8
:103280008001105010B57F200C0020404000E40960
:10329000110000191A00034B4001C01800F094F807
:1032A000012010BDC80A00207F22130010B50B407A
:1032B0000A420BD0C9098022580040180649400133
:1032C00040181201002100F05DF810BD02220348F1
:1032D000C909521A8266EEE7C80A00200020115080
:1032E0007F22100010B508400A4200D110BD002313
:1032F000C909400040180449400108180022034948
:10330000C37000F03FF8F1E7C80A0020FFF7FFFFA5
:103310007F21C309034A9B00014010B59A58024817
:10332000FEF760FEC40300201855001080220D4BEC
:10333000520410B51A600C4B0C491A6010008B68CF
:103340009843FBD10A4C9C2200212000FFF710FB80
:103350008022002152010748FFF70AFB0923636717
:1033600010BDC04600E0004000F0004000C000403A
:103370000000115000001050002303744382838228
:103380008361704710B58368002901D01C68214013
:10339000002A11D08024E400114322420CD01A6884
:1033A00022420BD1074A0A401A60FFE7FFE7FFE716
:1033B000FFE7FFE7FFE78368196010BD8078FFF73C
:1033C000A7FFC046FFFBFFFFF0B5C646002300B5D0
:1033D000838201330374436804001E68838B816118
:1033E0001F1C934200D9171C8025BFB2D21B93B279
:1033F000E278ED0063823D43002A02D09025AD01C2
:103400003D4301204240E2706278002A51D0002BF7
:103410001DD1A023DB011D43354B1B6C354B3340C5
:103420008026B6051E436368A2681E6013685B05AC
:103430005AD4314B2B401360FFE7FFE7FFE7FFE76C
:10344000FFE7FFE7A3681D6080BCB846F0BD80229F
:1034500052011543264A126C920703D4A278D2096E
:10346000012ADBD1A28B111C9A4200D9191C80279A
:103470008AB2FF009B1A90461743E2789BB26382A0
:10348000002A03D090274146BF010F4301214A4043
:10349000E2706278002A19D0002B02D18023DB0170
:1034A0001F43164B3F043340A026F6053D431E4301
:1034B000B9E73A00E068FFF761FAA3699C46802308
:1034C00067441B021D43A761638AA0E7E068424688
:1034D000A1694030FFF752FAA3694344A3618023F6
:1034E0001B021F43638AD7E7A078FFF711FFC0468E
:1034F00000001150FFFFFFAFFFFBFFFFFFFFFFDFEB
:10350000F0B5C64600B5067C0400002E00D1D3E01D
:1035100083681A681D684378AD05AD0D002B51D145
:10352000838AEB189BB28382A18B8D4207D2002342
:10353000638263681B68300080BCB846F0BD626877
:103540001268520002D58D4200D175E0638A002BCB
:10355000F1D062681F1C16688B4200D90F1C8025B1
:10356000BFB2DB1BE2789BB2ED0063823D43002AD1
:1035700002D09025AD013D4301214A40E2706278BE
:10358000002A68D0002B2AD1A023DB011D434F4B1A
:103590001B6C4F4B33408026B6051E436368A26800
:1035A0001E6013685B0500D58DE04A4B2B4013600D
:1035B000FFE7FFE7FFE7FFE7FFE7FFE7A368002676
:1035C0001D60B8E72A00C1688069FFF7D7F9A38AB0
:1035D000A269EB189BB25219A382A261A4E78022D0
:1035E00052011543394A126C920703D4A278D209CA
:1035F000012ACED1A28B111C9A423FD880278AB2D1
:10360000FF009B1A90461743E2789BB26382002A20
:103610002FD101214A40E2706278002A3ED0002B6F
:1036200002D18023DB011F432B4B3F043340A026F4
:10363000F6053D431E43B1E7A26815686278AD0107
:10364000AD0D002A1CD1EB18A3828D4200D37DE77B
:10365000002363826FE73A00A169E068FFF78EF903
:10366000A3699C46802367441B021D43A761638AAC
:1036700088E790274146BF010F43CAE7191CBDE701
:10368000E1682A004031A069FFF778F9A38AA18B8D
:10369000EB18A382A3695B19A361D6E7E0684246F1
:1036A000A1694030FFF76AF9A3694344A36180230D
:1036B0001B021F43638AB2E77F238178074A0848C9
:1036C0001940FEF78FFCA078FFF722FE0000115092
:1036D000FFFFFFAFFFFBFFFFFFFFFFDFC403002083
:1036E00038550010024B18784007C00F7047C0468D
:1036F000DC070020094A10B513785B07DC0F002BAC
:1037000005DA182312781340182B02D00024200069
:1037100010BD0020FFF720FCF9E7C046DC070020C1
:10372000014B18787047C046D50F0020F8B54746C2
:10373000CE4680B5294F05003B78002B04D00120F0
:10374000C0BCB946B046F8BD532200212448FFF75B
:103750000FF9244C2000FEF7CDF9234B1C60234CBD
:1037600020001C30FEF7E2F9200001F0B5FA204BF2
:10377000204E1C60204B9846002B04D0300000E007
:1037800000BF1E4B1860424600243378002A1DD02B
:103790001B4A9046194A91469C4210D31BD143467E
:1037A000984701343378E4B2A342F5D22800FFF7FA
:1037B000E3FB2800FFF7C0FB01233B70BFE74A464D
:1037C000630012681B19DB009B58E9E700F06AFFF1
:1037D0003378002BEAD000231B68FFDED50F0020D2
:1037E000DC0700209407002030080020CC030020D4
:1037F00034080020D40F0020000000003C07002007
:10380000A5460010F0B5DE4657464E464546E0B5A3
:103810008BB001F035F8002800D147E1C44BC54D0D
:10382000994607AC2E68F269EFF3108172B61368FF
:10383000002BFCD0BFF35F8F31623000210001F01C
:10384000BFF8F269336ABFF35F8F0021116083F321
:103850001088002800D129E16378082BE2D8B64A05
:103860009B00D3589F466368002BDBD0A068984725
:10387000D8E77F222179AE4B0A405600C8099B1930
:103880001B18180001273030C678BE43C670C678B2
:103890000337BE43C670002A00D10EE1A74ADB7C85
:1038A000002A06D0A64A1278934200D293E19B1ACE
:1038B000DBB2002B00D0F9E0A24E62792078A36839
:1038C000B047AFE74B4601221B78012113434A461C
:1038D000137033234846D25C4E468A43C254C25CBE
:1038E00004208243F2540133F25C27788A43F25475
:1038F000F25C8243F254002000F0E8FD602223795C
:103900001A40602A0DD0402A00D1F3E0DB06DB0E1E
:10391000012B00D16AE1022B00D123E1002B00D161
:10392000F7E020780021FFF7BFFC80212078FFF727
:10393000BBFC77E77E4B1B78DB0700D472E7824B3A
:10394000002B00D16EE7FDF7E9FA6BE7784B1A78A8
:10395000D20700D466E77D4A002A00D162E71878D2
:103960000007C00FFDF7D8FA5CE7754E734A0027D1
:103970003378002A00D1B7E0754A9046BB4209D897
:10398000BB4200D0B3E00137FFB29F4200D949E704
:10399000BB42F5D9414609687A008C46D219D2005B
:1039A00062445269002AEED020789047013733787C
:1039B000FFB29F42E2D935E72378614E5F4A9846CD
:1039C00000273378002A00D186E0624A9246604A96
:1039D0009346320046469046BB425ED800D078E01F
:1039E000534630009847434601371B78FFB2BB422D
:1039F000F2D24F4E532200213000FEF7B9FF1022C1
:103A0000FF21F01CFEF7B4FF30002022FF2113300D
:103A1000FEF7AEFF00F050FD4F4B002B00D101E749
:103A2000FDF778FAFEE62378454E444A984600278B
:103A30003378002A47D0474A9246454A9346320097
:103A4000464690469F421FD343D153463000984785
:103A5000434601371B78FFB2BB42F3D2344E5322A8
:103A600000213000FEF784FF1022FF21F01CFEF73A
:103A70007FFF30002022FF211330FEF779FF00F096
:103A80001BFD2379B370CDE65A4612687B0094463D
:103A9000DB19DB0063445B68D8E75A4612687B0099
:103AA0009446DB19DB0063445B689AE70BB0F0BC1B
:103AB000BB46B246A946A046F0BD62792078A3680D
:103AC00000F018FDAEE6404600F01AFE3378002BF9
:103AD000C4D000235B68FFDE404600F011FE33785F
:103AE000002B00D185E7F4E7002B00D19AE60023F4
:103AF0005B69FFDE1948002800D112E700F0E6FC00
:103B00000021380008AA00E000BF002800D089E6A4
:103B100007E7202A00D19EE0002A00D001E7637960
:103B2000092B00D9FDE60E4A9B00D3589F46C0469C
:103B3000DC070020340800206C5500100000000055
:103B4000D40F0020E54700101D0F0010190F0010C2
:103B50003C07002001470010150F00100000000076
:103B6000905500107023217A0B4200D0D9E6C80985
:103B700084460F330B405B00F018B54E6044C07CA8
:103B8000002E06D0B34E3678B04200D284E0801BBF
:103B9000C0B200287CD1002A70D1AF4E6279934622
:103BA000022290465A4640468243012A00D1F3E061
:103BB0005A46002A00D0B4E64B4463443033DB78E5
:103BC00006AA9B07DB0F023213803800022308A9E4
:103BD00000F014FC26E65A00D318A04ADB00126855
:103BE000D318002B00D161E71E6966E6237A0F2BFC
:103BF00000D996E6964A4B44DB78002A05D0954AD0
:103C00001278934256D39B1ADBB2002B00D088E681
:103C10009348914E00F05AFC00213800F36808AA3E
:103C20009847002800D0FDE56022160023791E4049
:103C30001A4200D075E663790A3B012B00D970E681
:103C400000F044FC63790A2B00D1F8E0380008A9A1
:103C500000F0BCFBE6E5237A0F2B00D961E67C4A35
:103C60004B44DB78002A06D07A4A1278934200D27D
:103C7000B6E09B1ADBB2002B00D052E67848764EB5
:103C800000F024FC00213800F36808AA98473CE7BC
:103C90000026002A82D044E6460030186F4EC0004D
:103CA00036683618002A00D178E7002E00D138E6B1
:103CB000F068E5E7694A5E00F3181668DB00F6185D
:103CC000002E00D12DE6F068A4E7A2790292737865
:103CD0009A4207D07378002B00D02AE1029B002B78
:103CE00000D0C3E04B46029A380008A95A7000F091
:103CF0006DFB97E5E388012B00D012E608223378AC
:103D000093434A461370A1E70220317806AB9A1C10
:103D10008B068908DB0F01400B4355E7737806AA31
:103D2000023213703800012308A900F067FB79E51F
:103D3000E088030AC0B20F2B00D9F2E549499A0086
:103D40008A58974608A800F0C7FB3800A179FFF70A
:103D5000F9F8022233781343337063E5E388012BCB
:103D600000D0DEE5082233781343CAE7022B00D1E6
:103D70008EE13D4B002B00D1D3E500E000BF0200F7
:103D8000002A00D1CDE5D37891781B020B4338008F
:103D900008A900F033FBB8E6E288002A0BD15A46A6
:103DA0004B446344012A34D0302290469844434621
:103DB000DB789B071ED5002E00D133E5F06800F0BC
:103DC00085FBF36808AA002138009847002000F01E
:103DD0007DFB34234A46D35CDB0700D522E535E77B
:103DE0001E4A5E00F3181668DB00F618002E00D19C
:103DF00097E55DE73800FFF757FA43460222DB7884
:103E000013434246D370D378012213434246D37002
:103E1000D1E72F3292469A445346DB789B07CAD5A6
:103E20003800FFF75DFA53464246DB78934352462B
:103E3000D370D3785A4693435246D370BBE706AB50
:103E40009A1C3800012308A9167000F0D7FAE9E49B
:103E500000000000D40F0020F85500103C0700209F
:103E600000000000B855001000000000581EC0B24D
:103E7000FDF768F8002800D153E54378022B00D005
:103E80004FE50121C279BB46931152110B400A4004
:103E900012015B0113434A4612782F318A431343C0
:103EA0004A4613700923984680444746C37882786F
:103EB0001B021343C3180493049BBB4200D8DFE0EA
:103EC00001227B7801920B2B04D1FB7801933B7884
:103ED000FF187B78042B00D023E5049B6E4ADB1B84
:103EE0009BB203936D4B00261B78002A14D161E02E
:103EF000B34270D16A4B039A3900584690469847AE
:103F0000082802D94346834268D2644B01361B78A5
:103F1000F6B2B34200D204E5B342E9D9614B1B6863
:103F20000593059A730094469B19DB0063449B68D4
:103F3000E1E73800FFF748F9B378574A574E9B46F8
:103F400000213378002A2ED0564A904632000E00C7
:103F50009246B3421ED800D0BBE5534B3800984779
:103F6000534601361B78F6B2B342F2D253220021F7
:103F70004846FEF7FDFC4B461022D81CFF21FEF7F9
:103F8000F7FC2022FF214948FEF7F2FC4B465A4637
:103F90009A70A3E642461268730094469B19DB00B0
:103FA00063445B68DAE7380000F0AAFB3378002B43
:103FB000DCD08EE539005846039A00F0AFFB80460E
:103FC0008246082802D9039B98424ED9334B1B786E
:103FD000002B00D1A5E400239B68FFDE019B8246F5
:103FE000002B0FD0BB78019A9A18D2B204E00133AB
:103FF000DBB2CE709A4205D04946C918C878FF286E
:10400000F5D08EE4330039005246284800F078FCA1
:10401000224B57441B78B34200D34DE781E4244B35
:10402000002B00D17DE400E000BF021E00D178E447
:104030003800137808A900F0E1F966E52189FCF75A
:1040400085FF021EF4D16CE4FCF778FF1223020016
:1040500008A9380000F0D2F957E5164B002B00D123
:104060005FE400E000BF02008DE6019B002BB9D1A8
:1040700039004246084B0D4800F042FC47441BE71C
:104080000D4B5F46002B00D12CE6FCF741FF29E6E3
:10409000FCF758FF020073E600000000D40F002078
:1040A0001D4700103C07002001470010EF070020CB
:1040B0000000000000000000110F001030B587B0B4
:1040C00005000C000C2200216846FEF751FC6B46EF
:1040D0001D705C70042C4FD009D8022C34D0032CF6
:1040E00019D13C4B1A78520758D407B030BD052C73
:1040F00011D1384B1A78D207F7D504211A788A43A0
:104100001A70354B1C68E269EFF3108172B61368C0
:10411000002B09D1FBE7304B1C68E269EFF31081FB
:1041200072B61368002BFCD0BFF35F8F2162694623
:10413000200000F013FDE269236ABFF35F8F0021C6
:10414000116083F31088D0E70121224B1A788A434B
:104150001A701A780331A2431A7000225A701A7822
:104160008A431A701C4B1C68E269EFF3108172B627
:104170001368002BD8D1FBE7164B1A78D207B4D5B9
:1041800004211A780A431A70134B1C68E269EFF392
:10419000108172B61368002BC6D1FBE704211A7890
:1041A00003A88A431A7000210C22FEF7E1FB6B463C
:1041B0006A461D7305235373074B1C68E269EFF3CE
:1041C000108172B61368002BFCD0BFF35F8F2162A1
:1041D00003A9ADE7DC0700203408002070B584B0E7
:1041E00001AC06000D000C2200212000FEF7C0FBF0
:1041F000012363700D4B25711D682670EA69EFF38A
:10420000108372B611680029FCD0BFF35F8F2B6258
:104210002100280000F0A2FCEA692B6ABFF35F8F3F
:104220000021116083F3108804B070BD34080020B1
:10423000002330B585B001AD6B80287006330822AD
:1042400002A86B70FEF79AFB0C4B1C68E269EFF357
:10425000108372B611680029FCD0BFF35F8F236210
:104260002900200000F07AFCE269236ABFF35F8F27
:104270000021116083F3108805B030BD34080020A0
:10428000F0B5C646804600B584B001AC0F001600FC
:104290000021082220001D00FEF76AFB4346237020
:1042A000072363700F4B65711D682771A660EA696B
:1042B000EFF3108372B611680029FCD0BFF35F8F53
:1042C0002B622100280000F049FCEA692B6ABFF349
:1042D0005F8F0021116083F3108804B080BCB84662
:1042E000F0BDC04634080020F0B54646D6464F46DD
:1042F0008046C0B50C0015001E00002A2ED0702389
:104300009946184B00279A466378052B0FD1E17820
:104310008907890FB1420AD14A46A3781A4206D1C9
:1043200053462000997800F0AFFA002805D100200C
:10433000E0BCBA46B146A846F0BD21004046FEF7B3
:10434000CBFE0028F3D0A378DA09012A08D0089A16
:10435000137023780137E418AF42D5DB0120E7E77B
:10436000099AF5E7DC07002070B57F250F4C0D405A
:104370006D0064190600C80924183034E57800205F
:10438000ED0700D570BD0125E0782843E0703000CE
:10439000FEF778FF0028F5D10122E3789343E3701C
:1043A000E37803329343E370ECE7C046DC07002078
:1043B0007F22CB090A40044952008918C9183031BC
:1043C000C878C007C00F7047DC07002070B50A4EE0
:1043D0000500300008220C00FEF7D0FA00237F21F0
:1043E000F3602278B36091425B412800D90100223A
:1043F0000023FFF7B9FF70BD40070020F8B5CE4697
:10440000474691462A4E80B50822070030000D002D
:104410009846FEF7B3FA4B46B3600023F381EC797C
:10442000A97924020C43231C444500D943469AB27F
:104430009046B381002C13D0002A1FD04B46002B8E
:1044400034D0131C402A1FD89BB2984633787F2B58
:1044500020D80021174A43463800FFF785FF09E0BE
:104460007F222B7838009A42644100230022E10128
:10447000FFF77AFFC0BCB946B046F8BD33787F2B52
:1044800011D980210022E6E740239BB29846337879
:104490007F2BDED9074C424649462000FEF76EFAD4
:1044A00080212200D7E700210022D4E70020E1E7A5
:1044B000400700209C07002010B51422002102486C
:1044C000FEF756FA10BDC04640070020014B1861A8
:1044D0007047C0464007002010B5054C0100082277
:1044E0002000FEF74BFA0023A360E36010BDC04636
:1044F00040070020F8B53B4C1D0023780600DA0980
:10450000C9098A4213D00020002D00D0F8BD364BD7
:10451000002B03D021003000FEF7D0FD2369002BD3
:1045200044D022000221300098470120EEE77F2B83
:1045300006D8A068002837D02A002C49FEF71EFABA
:10454000A368E28959195219E38892B2E281A16005
:10455000934214D03F2D12D9A589A81A071C80B206
:1045600040282FD82378BFB27F2B2DD80021AA4214
:1045700035D01E4A3B003000FFF7F6FEC6E7236940
:10458000002B05D0220001213000984700280FD0D1
:104590007F220021237830009A42494100230022E3
:1045A000C901FFF7E1FEB1E70020AFE70120ADE769
:1045B00000213000FEF778FE30008021FEF774FE07
:1045C0000120A3E74027CDE7AA4207D0074C3A00D5
:1045D0002000FEF7D3F980212200CBE780210022C2
:1045E000C8E7C04640070020BD3000109C070020EF
:1045F000F0B5A624C64664004443124F261DF619A2
:1046000000B5300092B200F029FA3B190500997804
:1046100000209846FFF7CCFE002803D0280080BC7D
:10462000B846F0BD300000F0BDF93F28F6D92200B1
:104630004346CC329978D21940230020FFF794FEEC
:10464000ECE7C046F8080020F0B5A6246400444317
:104650002500C646124F2035ED1900B5280092B24C
:1046600000F0BAFA3B190600597800209846FFF787
:104670009FFE002803D0300080BCB846F0BD0D344A
:10468000FF34E41940222100280000F0E7F9031E5E
:10469000F1D04246002051782200FFF765FEEAE79C
:1046A000F8080020A62270B5144C82B0002120002A
:1046B0005200FEF75DF900252100012340223C3124
:1046C000201D009500F032F9260021002000012372
:1046D00040227C31BC360095203000F027F93000B4
:1046E000FDF708FAE6612600C4363000A561FDF743
:1046F00001FA6663A56302B070BDC046F8080020E9
:1047000010B5054C0023200008C000F0E5FA200099
:10471000203000F0E1FA10BDF8080020F0B5C646E0
:1047200000B54B7907000E0082B0FF2B04D00020AB
:1047300002B080BCB846F0BD284D6B78AC782343FE
:10474000F5D18B780C782B7008790C19002823D0C0
:104750006378052B08D0A21804E0217864186178EA
:10476000052901D09442F8D31D4B020098460193CD
:1047700001330093210002233800FFF7B5FD002824
:10478000D5D03279D3009B1AE418434659780029D2
:104790001BD16978002902D1A01B80B2C8E7002094
:1047A000FFF706FE0028F7D12F0028000D37FF374E
:1047B00040223900203000F051F9031EECD03A00BD
:1047C00069780020FFF7D0FDE6E742464023380035
:1047D000CB32FFF7C9FD0028DBD1A8E7F80800209D
:1047E000F908002070B5214C0800A2788A420BD04D
:1047F0006178814206D10020FFF7DAFD002823D03E
:10480000012070BD0020FCE721009AB2CC31201DB0
:1048100000F0E2F9164B002B02D00020FCF780FBE1
:104820000020A178FFF7C4FD0028E9D1201D00F089
:10483000B9F83F28E4D9220040230020A178CC32E7
:10484000FFF792FD0120DCE7250020000D35FF3544
:1048500040222900203000F001F9031ED0D02A00A8
:1048600061780020FFF780FDCAE7C046F808002005
:10487000210F001010B50020FEF758FF10BDC046F4
:1048800010B5FEF74DFF10BD072210B5447903792E
:10489000224012021A43C3789B079B0F022B05D0BC
:1048A000032B15D00020012B08D010BD02291CD0ED
:1048B0000020402393424041C0B2F6E702394B4208
:1048C00059410D4B9C46614491424041C0B2ECE7D6
:1048D00002394B425941F023002049429B001940C4
:1048E000403191424041C0B2DFE7044B9C466244F4
:1048F00053425A41D0B2D8E7FF03000000FEFFFF49
:10490000F0B5002A11D000247F274D78052D06D15F
:104910003D008E7835406D00F6094519AB550D7890
:104920006419A4B24919A242EFD8F0BDF0B5C64649
:1049300000B5150006AA1E001378802204000F009F
:104940009846120295422AD84069002803D00121D6
:10495000494200F061FCA069002803D001214942CE
:1049600000F05AFC4346A5806D00ADB223726B1E69
:10497000A381002360696D42E3812760E680658141
:104980002382002801D000F02FFCA0690124002818
:1049900001D000F029FC200080BCB846F0BD002406
:1049A000F9E7C04610B5C489018A8388621A92B2B9
:1049B0008C4202D24089121A92B2981A80B210BD6B
:1049C00070B5040080690E00002803D0012149421F
:1049D00000F022FCE189228A88B28D1A93B2ADB22E
:1049E000914202D26289AD1AADB2A288AA4207D220
:1049F000904225D261895118411A89B2150021824D
:104A0000002D02D122E09B1A9BB29A42FBD9E28888
:104A1000216853433000C918FDF7B0FF228A0125F1
:104A2000531C9BB29A4214D9002362899B189BB2F3
:104A3000A0692382002801D000F0D6FB280070BDB9
:104A4000811AA58989B28D42D8D2D3E70025238A5D
:104A50009BB2A2899A42EBD2E7E7C046F0B54F4637
:104A60004646D6460500806988469146C0B500286E
:104A700003D00121494200F0CFFBEA892B8A91B291
:104A8000D61A9CB2B6B29A4202D26B89F61AB6B264
:104A9000AF88B74209D2B94254D26B89FB18CB1AFE
:104AA0009BB23E002B822C8AA4B2002E50D04B46E3
:104AB000B14545D89EB2A74203D8E41BA4B2A74291
:104AC000FBD9EB88381B190099462B6861439C463B
:104AD00080B26144864225D94B46584383B21A00BE
:104AE00040469A46FDF74AFF4B464046F71BE419FD
:104AF0005C432968A2B25044FDF740FF2A8A93190B
:104B00009BB29A4218D96A899B189BB2A8692B82DA
:104B1000002801D000F068FB3000E0BCBA46B14686
:104B2000A846F0BD4A4640467243FDF727FF2A8A51
:104B300093199BB29A42E6D8AA899A42E6D2E2E752
:104B4000331CB7E7CB1BAA899BB29A42A9D2A4E730
:104B50002B8AAA899BB29A42D8D2D4E7F8B504002E
:104B600040690E00002803D00121494200F054FBA7
:104B7000E289218A95B2531A9BB2914202D9628985
:104B80009B1A9BB2A2889A4221D02B00954203D354
:104B90009B1A9BB29A42FBD9E28821685343C818FA
:104BA0003100FDF7EBFE6B1C9BB29D420BD9628975
:104BB0009B189BB260690127E381002801D000F0B7
:104BC00013FB3800F8BDA2899A42F3D2EFE7277AA7
:104BD000002FDAD1F5E7C046F8B545464E46DE4629
:104BE00057468846E0B50500161E5AD04069002891
:104BF00003D00121494200F00FFBEF892B7A298A6B
:104C0000BFB289B2002B3BD17A1AAB8892B28F42E5
:104C100002D26989521A92B29A1A111C92B2B24205
:104C200053D8EA888EB29246F21A92B291463C006C
:104C30009F4203D3E41AA4B29C42FBD250462A6896
:104C4000604394461B1B9BB2524660449E422AD846
:104C500041467243FDF792FEF3199BB29F421CD866
:104C6000AA899A4219D36869EB81002801D000F023
:104C7000BBFA3000F0BCBB46B246A946A046F8BD20
:104C8000EA88AB8892469E4221D3F61A5643002208
:104C9000B0440F001E009146C9E76A899B189BB279
:104CA000E1E70026E5E753439BB21A0041469B46E5
:104CB000FDF764FE2200534641464A445A432868A1
:104CC00092B25944FDF75AFEC6E7311CA9E7F21A21
:104CD00092B29146ABE7C04610B504004069002887
:104CE00003D00121494200F097FAA069002803D0BF
:104CF0000121494200F090FA0023E3812382A38836
:104D000060695B009BB25A1E5B42A28163810028EE
:104D100001D000F069FAA069002801D000F064FA1F
:104D2000012010BD10B51920FCF794F9D023802282
:104D3000E1211B0692045A620448054B00221860C8
:104D400049020123FDF7CEFF10BDC04600400340DD
:104D50008C0F002001230121084A1360084A1360C8
:104D6000084A080093689843FBD1074A11608021E4
:104D7000490013680B42FCD07047C04600E0004079
:104D800000F0004000C0004000C00440054BC01AC5
:104D900043425841072340429843034B1030186068
:104DA0007047C046F003002000E00040F8B5DE4642
:104DB00057464E4645468346E0B505200C00FDF7B4
:104DC0008DFA0600600821008019FDF7E1FC430020
:104DD00098468044070005214046FDF7D9FC3B1A60
:104DE0009A46204B8146700080199C4234D81E4957
:104DF000FDF7CEFC451C5B461C680023E366226879
:104E00000433534006221A4080235B0123431A6077
:104E10005346E3614B462362434601204F2B03D99F
:104E200050214046FDF7B4FCA0232200E05080232F
:104E3000E06F7C3245402D045B0113432D0C1D6057
:104E4000012339003000E366FDF7A2FCF0BCBB464D
:104E5000B246A946A046F8BD0449FDF799FC451C99
:104E6000C9E7C0463F420F008096980040787D0118
:104E7000104A70B5821A53425A41072352429A434C
:104E80000D4B10321A600D4B0D4C1A601500A368C3
:104E90009D432B1EFAD166240268FF340571D56646
:104EA0001460633C8833FF3CD5639563D450FFF7AF
:104EB0007DFF70BDF003002000E0004000F00040E6
:104EC00000C00040F0B557464E464546DE46904687
:104ED0000022E0B583B01E000CAB1B7884469A46D6
:104EE0000368DA6601325960DA66002E4FDD5146FA
:104EF0004A40520201928022914632008025771E5C
:104F00000020464610219046AD000024002804D120
:104F100062461479621E9441A40200229346B8426C
:104F20001AD0325C22435C4622431A615A6B11420A
:104F3000FCD04A469C58002C11D1B84222D00130F6
:104F40008045E2D1634652461A7103B0F0BCBB46BD
:104F5000B246A946A046F0BD019A9346E1E75A6DD4
:104F6000012293465A6B2A42FCD01A6E5A46002AF6
:104F7000E5D0002C03D0E30701D42307E2D40220BC
:104F80004042DFE75246002AD9D1D346EAE7002063
:104F9000D8E7C046F0B54546DE4657464E469346EE
:104FA0000022E0B51D0009AB1B7804009846036899
:104FB000DA6601325960DA66002D3EDD41464A402C
:104FC0005202944680220020520091466F1E803A81
:104FD000596F1029FCD0002826D000268021B24627
:104FE0004900B84212D0196102E0996F002913D12B
:104FF0009958596D0029F8D0022040424346237148
:10500000F0BCBB46B246A946A046F0BD6646514636
:1050100031434E463143E6E759461B690B54013094
:105020008542EBD02368D3E721790029D5D08026AB
:10503000A021F600B246C900D3E70020DEE7C04653
:10504000F8B557468246384B454653445A42534179
:10505000802292029446DE464E465B421B0C334A47
:105060001B046344E0B51360314A0D0031491360FD
:1050700018008A6890438146FAD10620FDF72EF980
:10508000804680200221EF0D6E02AB0DAA02400087
:1050900005E0904507D392197B4181423FD00C0037
:1050A0000231002BF5D0802627023F1B760002E05C
:1050B0003F1B012E35D039004046B346013EFDF777
:1050C00067FB8542F4D25946330299466143534601
:1050D0004A461C611B6850465340FF22120213408F
:1050E0008022520102431360036807205840CF23F7
:1050F000034013605246802303209B0124321A434D
:1051000010605246101D1843022303604046FDF70D
:105110003FFBF0BCBB46B246A946A046F8BD0C001A
:10512000C1E72100D3E7C0460040FCBF00E00040DB
:1051300000F0004000C00040C0230221021D9B017E
:105140001A43116002002432134303221A60074BF2
:1051500080229C4660444342584192029446434216
:105160001B0C034A1B046344136070470040FCBFE0
:1051700000E0004010B583070AD00300032102E0DD
:1051800001330B4205D01A78002AF9D1181A10BD44
:10519000030019680C4A0D4C8A188A4322420FD129
:1051A0005968094A04338A188A43224208D1596847
:1051B000054A04338A188A432242F1D000E00133C1
:1051C0001A78002AFBD1E1E7FFFEFEFE8080808096
:1051D000F8B5C0460000000001B40248844601BC96
:1051E000604700BF6102002001B40248844601BC50
:1051F000604700BFED01002001B40248844601BCB5
:10520000604700BFD502002001B40248844601BCBB
:10521000604700BF0901002001B40248844601BC78
:10522000604700BF4D01002001B40248844601BC24
:10523000604700BF1502002001B40248844601BC4B
:08524000604700BFC10000201F
:10524800760400107604001012080010760400108E
:10525800760400107604001076040010760400101E
:10526800760400107604001076040010760400100E
:1052780076040010760400107604001076040010FE
:105288009C070010380700100A0700107604001069
:1052980076040010760400107604001076040010DE
:1052A80076040010760400107604001076040010CE
:1052B80076040010760400107604001076040010BE
:1052C80076040010600400107604001076040010C4
:1052D800760400107604001076040010760400109E
:1052E800760400107604001076040010760400108E
:1052F800760400107604001076040010760400107E
:10530800760400107604001076040010760400106D
:10531800760400107604001076040010760400105D
:10532800760400107604001076040010760400104D
:10533800760400107604001076040010760400103D
:105348001C0800100A060010D00500107604001092
:10535800760400107604001076040010760400101D
:10536800760400107604001076040010760400100D
:1053780076040010760400107604001076040010FD
:105388005A0600102C060010A20500107604001022
:1053980076040010760400107604001076040010DD
:1053A80076040010760400107604001076040010CD
:1053B80076040010760400107604001076040010BD
:1053C800F8040010D2040010A004001055736264A1
:1053D80075696E6F000000005573626475696E6FC1
:1053E80020436F6D706F73697465204465766963D7
:1053F8006500000031333337000000000904000065
:1054080009022000010100A0320904000002FF0087
:105418000000070501024000000705810240000066
:105428001201000200000040830411FF0001010284
:10543800030100004E6F207370696E6C6F636B73AD
:105448002061726520617661696C61626C6500003B
:10545800486172647761726520616C61726D2025A4
:105468006420616C726561647920636C61696D6543
:10547800640000000A2A2A2A2050414E4943202A63
:105488002A2A0A000A0000004861726420617373C6
:105498006572740052656C6561736500626F6F7444
:1054A800325F77323571303830000000312E332EBC
:1054B800300000007069636F00000000757362645B
:1054C80075696E6F000000004D617920313520321A
:1054D8003032320006005250BBFF3CB6BC540010BC
:1054E80006005250E182887FA454001006005250F2
:1054F800D3F075429C5400100D0A0000556E686187
:105508006E646C65642049525120307825780A0011
:1055180065702025642025732077617320616C7283
:105528006561647920617661696C61626C6500000F
:1055380043616E277420636F6E74696E7565207899
:10554800666572206F6E20696E6163746976652086
:105558006570202564202573000000006F757400B5
:10556800696E000024380010263A0010B83900107F
:105578006A3900104C39001034390010C438001052
:105588007238001066380010083D0010F43C001016
:10559800223900105C3D001022390010443D0010F3
:1055A800303D0010223900101C3D0010CA3C00108C
:1055B80022390010484000106C3D00103C4000109B
:1055C80022390010223900101E4000106C3D0010D6
:1055D8002239001022390010223900102239001017
:1055E8002239001022390010223900105A400010C8
:1055F800A5460010014700101D47001000000000DC
:10560800E5470010000000004C45440009005250D6
:10561800000000021056001008005250120000004E
:10562800B4020010A80200109C020010DC54001004
:1056380090020010E8540010F454001014560010A2
:0456480020560010D8
:10564C00D02330B500251B0600245D5706E0036807
:10565C00BFF35F8F1C6081F3108820BF0268EFF3EB
:10566C00108172B61368002BFCD0BFF35F8F0379E7
:10567C007F2BECD905710368BFF35F8F00221A6092
:10568C0081F3108830BDC04603000068EFF3108C26
:10569C0072B60268002AFCD0BFF35F8F04229A56C0
:1056AC00002A0BDB00290FD000200A601B68BFF317
:1056BC005F8F00221A608CF310887047D02212067C
:1056CC00126801201A71F1E70020EFE7F0B5C64629
:1056DC0000B582B00C00070000F0C6F8FA220023D7
:1056EC000090019120009200002100F0B5F8009A82
:1056FC00019B14001D0024184D41AB422FD82BD018
:10570C00D0231B061B68002698460BE03B68BFF3B2
:10571C005F8F1E6081F310882000290000F0ACF828
:10572C00002820D13A68EFF3108172B61368002B71
:10573C00FCD0BFF35F8F3B797F2BE7D943463B719E
:10574C003B68BFF35F8F00221A6081F31088012041
:10575C0002B080BCB846F0BD009BA342D0D9012456
:10576C006442E517CCE70020F2E7C0460268EFF38D
:10577C00108172B61368002BFCD0BFF35F8FFF2330
:10578C0003710368BFF35F8F00221A6081F31088E6
:10579C0040BF704730B50400101E0AD00A000D1827
:1057AC000221E3681942FCD013780132A3609542C0
:1057BC00F7D1E3685B0704D50421A368E3681942B9
:1057CC00FBD11021E3681942FCD1E3685B0704D5D7
:1057DC000421A368E3681942FBD10123236230BD85
:1057EC00F0B54746CE4605008846180080B5002B1C
:1057FC0017D01E001C0002239C4602339946002E33
:10580C0013D0330008336146EF6839421AD0A342F3
:10581C0018D94346013EAB603300002C14D1002B49
:10582C00EDD1C0BCB946B046F0BD002CF9D049460C
:10583C00EB681942F9D0AB68013C137023000132BC
:10584C003343ECE7002CDED04946EB681942D6D046
:10585C00F1E7C0467047C04601B40248844601BC1B
:10586C00604700BF9D28001001B40248844601BC6B
:10587C00604700BF2919001001B40248844601BCDE
:10588C00604700BF8517001004540010D45300105B
:10589C00E0530010FC5300101000000034030020F3
:1058AC000000000020040020800A002000000000FE
:1058BC0000000000900A0020000000000000000022
:1058CC0010000000000000000000010000000000BB
:1058DC0000000000000002000000000000000000BA
:1058EC000000030000000000000000000000FF00AA
:1058FC000000000000B5486801318E460047704634
:10590C0009380149884700BD25250010000000001A
:10591C00503300004C33000054330000523300006D
:10592C004D5300004D43000053340000433400003D
:10593C00612C001000000000AD2C001000000000D5
:10594C000001000064550010685500103808002054
:10595C0010000C000000E0FF1F0000000000000021
:10596C00000000000000000000000000000000002B
:10597C0000400440000000000080044000000000D3
:10598C000000000000000000612900101D2700101D
:0C599C00DD270010D12800103903001096
:04000005100001E9FD
:00000001FF
